{
  "contractName": "AuctionManager",
  "abi": [
    {
      "inputs": [
        {
          "internalType": "contract SOVToken",
          "name": "_sov",
          "type": "address"
        },
        {
          "internalType": "contract USDC",
          "name": "_usdc",
          "type": "address"
        },
        {
          "internalType": "uint256",
          "name": "_supply",
          "type": "uint256"
        },
        {
          "internalType": "uint256",
          "name": "_initialPercent",
          "type": "uint256"
        },
        {
          "internalType": "uint256",
          "name": "_tranches",
          "type": "uint256"
        },
        {
          "internalType": "uint256",
          "name": "_supplyPercent",
          "type": "uint256"
        }
      ],
      "payable": false,
      "stateMutability": "nonpayable",
      "type": "constructor"
    },
    {
      "anonymous": false,
      "inputs": [
        {
          "indexed": false,
          "internalType": "address",
          "name": "auctionAddress",
          "type": "address"
        }
      ],
      "name": "AuctionCompletion",
      "type": "event"
    },
    {
      "anonymous": false,
      "inputs": [
        {
          "indexed": true,
          "internalType": "address",
          "name": "previousOwner",
          "type": "address"
        },
        {
          "indexed": true,
          "internalType": "address",
          "name": "newOwner",
          "type": "address"
        }
      ],
      "name": "OwnershipTransferred",
      "type": "event"
    },
    {
      "constant": true,
      "inputs": [],
      "name": "auctionDuration",
      "outputs": [
        {
          "internalType": "uint256",
          "name": "",
          "type": "uint256"
        }
      ],
      "payable": false,
      "stateMutability": "view",
      "type": "function"
    },
    {
      "constant": true,
      "inputs": [
        {
          "internalType": "uint256",
          "name": "",
          "type": "uint256"
        }
      ],
      "name": "auctions",
      "outputs": [
        {
          "internalType": "address",
          "name": "",
          "type": "address"
        }
      ],
      "payable": false,
      "stateMutability": "view",
      "type": "function"
    },
    {
      "constant": true,
      "inputs": [],
      "name": "initialPercent",
      "outputs": [
        {
          "internalType": "uint256",
          "name": "",
          "type": "uint256"
        }
      ],
      "payable": false,
      "stateMutability": "view",
      "type": "function"
    },
    {
      "constant": true,
      "inputs": [],
      "name": "initialPercentD",
      "outputs": [
        {
          "internalType": "uint256",
          "name": "",
          "type": "uint256"
        }
      ],
      "payable": false,
      "stateMutability": "view",
      "type": "function"
    },
    {
      "constant": true,
      "inputs": [],
      "name": "isOwner",
      "outputs": [
        {
          "internalType": "bool",
          "name": "",
          "type": "bool"
        }
      ],
      "payable": false,
      "stateMutability": "view",
      "type": "function"
    },
    {
      "constant": true,
      "inputs": [],
      "name": "owner",
      "outputs": [
        {
          "internalType": "address",
          "name": "",
          "type": "address"
        }
      ],
      "payable": false,
      "stateMutability": "view",
      "type": "function"
    },
    {
      "constant": false,
      "inputs": [],
      "name": "renounceOwnership",
      "outputs": [],
      "payable": false,
      "stateMutability": "nonpayable",
      "type": "function"
    },
    {
      "constant": true,
      "inputs": [],
      "name": "sov",
      "outputs": [
        {
          "internalType": "contract SOVToken",
          "name": "",
          "type": "address"
        }
      ],
      "payable": false,
      "stateMutability": "view",
      "type": "function"
    },
    {
      "constant": true,
      "inputs": [],
      "name": "supply",
      "outputs": [
        {
          "internalType": "uint256",
          "name": "",
          "type": "uint256"
        }
      ],
      "payable": false,
      "stateMutability": "view",
      "type": "function"
    },
    {
      "constant": true,
      "inputs": [],
      "name": "supplyPercent",
      "outputs": [
        {
          "internalType": "uint256",
          "name": "",
          "type": "uint256"
        }
      ],
      "payable": false,
      "stateMutability": "view",
      "type": "function"
    },
    {
      "constant": true,
      "inputs": [],
      "name": "supplyPercentD",
      "outputs": [
        {
          "internalType": "uint256",
          "name": "",
          "type": "uint256"
        }
      ],
      "payable": false,
      "stateMutability": "view",
      "type": "function"
    },
    {
      "constant": true,
      "inputs": [],
      "name": "tranches",
      "outputs": [
        {
          "internalType": "uint256",
          "name": "",
          "type": "uint256"
        }
      ],
      "payable": false,
      "stateMutability": "view",
      "type": "function"
    },
    {
      "constant": false,
      "inputs": [
        {
          "internalType": "address",
          "name": "newOwner",
          "type": "address"
        }
      ],
      "name": "transferOwnership",
      "outputs": [],
      "payable": false,
      "stateMutability": "nonpayable",
      "type": "function"
    },
    {
      "constant": true,
      "inputs": [],
      "name": "usdc",
      "outputs": [
        {
          "internalType": "contract USDC",
          "name": "",
          "type": "address"
        }
      ],
      "payable": false,
      "stateMutability": "view",
      "type": "function"
    },
    {
      "constant": true,
      "inputs": [],
      "name": "getAuctions",
      "outputs": [
        {
          "internalType": "address[]",
          "name": "",
          "type": "address[]"
        }
      ],
      "payable": false,
      "stateMutability": "view",
      "type": "function"
    },
    {
      "constant": true,
      "inputs": [],
      "name": "test",
      "outputs": [
        {
          "internalType": "uint256",
          "name": "",
          "type": "uint256"
        }
      ],
      "payable": false,
      "stateMutability": "view",
      "type": "function"
    },
    {
      "constant": true,
      "inputs": [],
      "name": "getTrancheSize",
      "outputs": [
        {
          "internalType": "uint256",
          "name": "",
          "type": "uint256"
        }
      ],
      "payable": false,
      "stateMutability": "view",
      "type": "function"
    },
    {
      "constant": false,
      "inputs": [],
      "name": "createAuction",
      "outputs": [
        {
          "internalType": "address",
          "name": "",
          "type": "address"
        }
      ],
      "payable": false,
      "stateMutability": "nonpayable",
      "type": "function"
    },
    {
      "constant": true,
      "inputs": [],
      "name": "pricePerToken",
      "outputs": [
        {
          "internalType": "uint256",
          "name": "",
          "type": "uint256"
        }
      ],
      "payable": false,
      "stateMutability": "view",
      "type": "function"
    }
  ],
  "bytecode": "0x608060405234801561001057600080fd5b50604051612fb4380380612fb4833981810160405260c081101561003357600080fd5b8101908080519060200190929190805190602001909291908051906020019092919080519060200190929190805190602001909291908051906020019092919050505061008461020360201b60201c565b6000806101000a81548173ffffffffffffffffffffffffffffffffffffffff021916908373ffffffffffffffffffffffffffffffffffffffff1602179055506000809054906101000a900473ffffffffffffffffffffffffffffffffffffffff1673ffffffffffffffffffffffffffffffffffffffff16600073ffffffffffffffffffffffffffffffffffffffff167f8be0079c531659141344cd1fd0a4f28419497f9722a3daafe3b4186f6b6457e060405160405180910390a385600960006101000a81548173ffffffffffffffffffffffffffffffffffffffff021916908373ffffffffffffffffffffffffffffffffffffffff16021790555084600a60006101000a81548173ffffffffffffffffffffffffffffffffffffffff021916908373ffffffffffffffffffffffffffffffffffffffff16021790555083600281905550826003819055506127106004819055508160058190555080600681905550612710600781905550610e1060088190555050505050505061020b565b600033905090565b612d9a8061021a6000396000f3fe60806040523480156200001157600080fd5b50600436106200013c5760003560e01c80637b1b1de611620000bd578063d7c06919116200007b578063d7c0691914620003c6578063ebf049171462000429578063f2fde38b1462000449578063f58114471462000490578063f8a8fd6d14620004dc576200013c565b80637b1b1de614620002f65780638da5cb5b14620003165780638f32d59b1462000362578063b6ebc66e1462000386578063bbb2eaf614620003a6576200013c565b80633e413bee116200010b5780633e413bee14620001ed5780634215e3c41462000239578063571a26a0146200025957806366c9d69214620002ca578063715018a614620002ea576200013c565b8063047fc9aa14620001415780630cbf54c8146200016157806315d870cf1462000181578063312ba40514620001a1575b600080fd5b6200014b620004fc565b6040518082815260200191505060405180910390f35b6200016b62000502565b6040518082815260200191505060405180910390f35b6200018b62000508565b6040518082815260200191505060405180910390f35b620001ab6200050e565b604051808273ffffffffffffffffffffffffffffffffffffffff1673ffffffffffffffffffffffffffffffffffffffff16815260200191505060405180910390f35b620001f762000534565b604051808273ffffffffffffffffffffffffffffffffffffffff1673ffffffffffffffffffffffffffffffffffffffff16815260200191505060405180910390f35b620002436200055a565b6040518082815260200191505060405180910390f35b62000288600480360360208110156200027157600080fd5b810190808035906020019092919050505062000560565b604051808273ffffffffffffffffffffffffffffffffffffffff1673ffffffffffffffffffffffffffffffffffffffff16815260200191505060405180910390f35b620002d46200059d565b6040518082815260200191505060405180910390f35b620002f4620005a3565b005b62000300620006df565b6040518082815260200191505060405180910390f35b620003206200087b565b604051808273ffffffffffffffffffffffffffffffffffffffff1673ffffffffffffffffffffffffffffffffffffffff16815260200191505060405180910390f35b6200036c620008a4565b604051808215151515815260200191505060405180910390f35b6200039062000904565b6040518082815260200191505060405180910390f35b620003b062000b78565b6040518082815260200191505060405180910390f35b620003d062000b7e565b6040518080602001828103825283818151815260200191508051906020019060200280838360005b8381101562000415578082015181840152602081019050620003f8565b505050509050019250505060405180910390f35b6200043362000c0e565b6040518082815260200191505060405180910390f35b6200048e600480360360208110156200046157600080fd5b81019080803573ffffffffffffffffffffffffffffffffffffffff16906020019092919050505062000c14565b005b6200049a62000c9f565b604051808273ffffffffffffffffffffffffffffffffffffffff1673ffffffffffffffffffffffffffffffffffffffff16815260200191505060405180910390f35b620004e662001157565b6040518082815260200191505060405180910390f35b60025481565b60085481565b60045481565b600960009054906101000a900473ffffffffffffffffffffffffffffffffffffffff1681565b600a60009054906101000a900473ffffffffffffffffffffffffffffffffffffffff1681565b60065481565b600181815481106200056e57fe5b906000526020600020016000915054906101000a900473ffffffffffffffffffffffffffffffffffffffff1681565b60035481565b620005ad620008a4565b62000620576040517f08c379a00000000000000000000000000000000000000000000000000000000081526004018080602001828103825260208152602001807f4f776e61626c653a2063616c6c6572206973206e6f7420746865206f776e657281525060200191505060405180910390fd5b600073ffffffffffffffffffffffffffffffffffffffff166000809054906101000a900473ffffffffffffffffffffffffffffffffffffffff1673ffffffffffffffffffffffffffffffffffffffff167f8be0079c531659141344cd1fd0a4f28419497f9722a3daafe3b4186f6b6457e060405160405180910390a360008060006101000a81548173ffffffffffffffffffffffffffffffffffffffff021916908373ffffffffffffffffffffffffffffffffffffffff160217905550565b60008060009050600080905060008090505b60018054905081101562000867576000600182815481106200070f57fe5b9060005260206000200160009054906101000a900473ffffffffffffffffffffffffffffffffffffffff16905060008173ffffffffffffffffffffffffffffffffffffffff1663c5c4744c6040518163ffffffff1660e01b815260040160206040518083038186803b1580156200078557600080fd5b505afa1580156200079a573d6000803e3d6000fd5b505050506040513d6020811015620007b157600080fd5b81019080805190602001909291905050509050808501945060008273ffffffffffffffffffffffffffffffffffffffff16636cfc82ed6040518163ffffffff1660e01b815260040160206040518083038186803b1580156200081257600080fd5b505afa15801562000827573d6000803e3d6000fd5b505050506040513d60208110156200083e57600080fd5b8101908080519060200190929190505050905080850194505050508080600101915050620006f1565b506200087482826200115f565b9250505090565b60008060009054906101000a900473ffffffffffffffffffffffffffffffffffffffff16905090565b60008060009054906101000a900473ffffffffffffffffffffffffffffffffffffffff1673ffffffffffffffffffffffffffffffffffffffff16620008e8620011ab565b73ffffffffffffffffffffffffffffffffffffffff1614905090565b60008060018054905014156200092f5760045460035460025402816200092657fe5b04905062000b75565b6000809050600080905060008090505b60018054905081101562000ab5576000600182815481106200095d57fe5b9060005260206000200160009054906101000a900473ffffffffffffffffffffffffffffffffffffffff16905060008173ffffffffffffffffffffffffffffffffffffffff1663c5c4744c6040518163ffffffff1660e01b815260040160206040518083038186803b158015620009d357600080fd5b505afa158015620009e8573d6000803e3d6000fd5b505050506040513d6020811015620009ff57600080fd5b81019080805190602001909291905050509050808501945060008273ffffffffffffffffffffffffffffffffffffffff16636cfc82ed6040518163ffffffff1660e01b815260040160206040518083038186803b15801562000a6057600080fd5b505afa15801562000a75573d6000803e3d6000fd5b505050506040513d602081101562000a8c57600080fd5b81019080805190602001909291905050509050808501945050505080806001019150506200093f565b50600062000ac9836001805490506200115f565b90506000630aba95009050600083600754600654600254028162000ae957fe5b04039050600060075460065484028162000aff57fe5b0490506000670de0b6b3a764000060018054905088600554028162000b2057fe5b048162000b2957fe5b049050600060028284018162000b3b57fe5b049050600062000b4e878602836200115f565b90506000670de0b6b3a7640000828162000b6457fe5b049050809a50505050505050505050505b90565b60075481565b6060600180548060200260200160405190810160405280929190818152602001828054801562000c0457602002820191906000526020600020905b8160009054906101000a900473ffffffffffffffffffffffffffffffffffffffff1673ffffffffffffffffffffffffffffffffffffffff168152602001906001019080831162000bb9575b5050505050905090565b60055481565b62000c1e620008a4565b62000c91576040517f08c379a00000000000000000000000000000000000000000000000000000000081526004018080602001828103825260208152602001807f4f776e61626c653a2063616c6c6572206973206e6f7420746865206f776e657281525060200191505060405180910390fd5b62000c9c81620011b3565b50565b600060011515600960009054906101000a900473ffffffffffffffffffffffffffffffffffffffff1673ffffffffffffffffffffffffffffffffffffffff1663429b62e5336040518263ffffffff1660e01b8152600401808273ffffffffffffffffffffffffffffffffffffffff1673ffffffffffffffffffffffffffffffffffffffff16815260200191505060206040518083038186803b15801562000d4557600080fd5b505afa15801562000d5a573d6000803e3d6000fd5b505050506040513d602081101562000d7157600080fd5b810190808051906020019092919050505015151462000ddc576040517f08c379a000000000000000000000000000000000000000000000000000000000815260040180806020018281038252602181526020018062002d456021913960400191505060405180910390fd5b600062000de862000904565b9050600060085442019050600030600960009054906101000a900473ffffffffffffffffffffffffffffffffffffffff16600a60009054906101000a900473ffffffffffffffffffffffffffffffffffffffff16858560405162000e4c90620013c4565b808673ffffffffffffffffffffffffffffffffffffffff1673ffffffffffffffffffffffffffffffffffffffff1681526020018573ffffffffffffffffffffffffffffffffffffffff1673ffffffffffffffffffffffffffffffffffffffff1681526020018473ffffffffffffffffffffffffffffffffffffffff1673ffffffffffffffffffffffffffffffffffffffff16815260200183815260200182815260200195505050505050604051809103906000f08015801562000f13573d6000803e3d6000fd5b509050600081905060018190806001815401808255809150509060018203906000526020600020016000909192909190916101000a81548173ffffffffffffffffffffffffffffffffffffffff021916908373ffffffffffffffffffffffffffffffffffffffff16021790555050600960009054906101000a900473ffffffffffffffffffffffffffffffffffffffff1673ffffffffffffffffffffffffffffffffffffffff166340c10f198261271087026040518363ffffffff1660e01b8152600401808373ffffffffffffffffffffffffffffffffffffffff1673ffffffffffffffffffffffffffffffffffffffff16815260200182815260200192505050602060405180830381600087803b1580156200102f57600080fd5b505af115801562001044573d6000803e3d6000fd5b505050506040513d60208110156200105b57600080fd5b810190808051906020019092919050505050600960009054906101000a900473ffffffffffffffffffffffffffffffffffffffff1673ffffffffffffffffffffffffffffffffffffffff166347ee0394826040518263ffffffff1660e01b8152600401808273ffffffffffffffffffffffffffffffffffffffff1673ffffffffffffffffffffffffffffffffffffffff168152602001915050602060405180830381600087803b1580156200110f57600080fd5b505af115801562001124573d6000803e3d6000fd5b505050506040513d60208110156200113b57600080fd5b8101908080519060200190929190505050508094505050505090565b600042905090565b6000620011a383836040518060400160405280601a81526020017f536166654d6174683a206469766973696f6e206279207a65726f000000000000815250620012f9565b905092915050565b600033905090565b600073ffffffffffffffffffffffffffffffffffffffff168173ffffffffffffffffffffffffffffffffffffffff1614156200123b576040517f08c379a000000000000000000000000000000000000000000000000000000000815260040180806020018281038252602681526020018062002d1f6026913960400191505060405180910390fd5b8073ffffffffffffffffffffffffffffffffffffffff166000809054906101000a900473ffffffffffffffffffffffffffffffffffffffff1673ffffffffffffffffffffffffffffffffffffffff167f8be0079c531659141344cd1fd0a4f28419497f9722a3daafe3b4186f6b6457e060405160405180910390a3806000806101000a81548173ffffffffffffffffffffffffffffffffffffffff021916908373ffffffffffffffffffffffffffffffffffffffff16021790555050565b60008083118290620013a9576040517f08c379a00000000000000000000000000000000000000000000000000000000081526004018080602001828103825283818151815260200191508051906020019080838360005b838110156200136d57808201518184015260208101905062001350565b50505050905090810190601f1680156200139b5780820380516001836020036101000a031916815260200191505b509250505060405180910390fd5b506000838581620013b657fe5b049050809150509392505050565b61194c80620013d38339019056fe6080604052600060055534801561001557600080fd5b5060405161194c38038061194c833981810160405260a081101561003857600080fd5b81019080805190602001909291908051906020019092919080519060200190929190805190602001909291908051906020019092919050505061007f6102b960201b60201c565b6000806101000a81548173ffffffffffffffffffffffffffffffffffffffff021916908373ffffffffffffffffffffffffffffffffffffffff1602179055506000809054906101000a900473ffffffffffffffffffffffffffffffffffffffff1673ffffffffffffffffffffffffffffffffffffffff16600073ffffffffffffffffffffffffffffffffffffffff167f8be0079c531659141344cd1fd0a4f28419497f9722a3daafe3b4186f6b6457e060405160405180910390a384600160006101000a81548173ffffffffffffffffffffffffffffffffffffffff021916908373ffffffffffffffffffffffffffffffffffffffff16021790555083600260006101000a81548173ffffffffffffffffffffffffffffffffffffffff021916908373ffffffffffffffffffffffffffffffffffffffff16021790555082600360006101000a81548173ffffffffffffffffffffffffffffffffffffffff021916908373ffffffffffffffffffffffffffffffffffffffff160217905550816004819055508060078190555033600660006101000a81548173ffffffffffffffffffffffffffffffffffffffff021916908373ffffffffffffffffffffffffffffffffffffffff1602179055507f8a8cc462d00726e0f8c031dd2d6b9dcdf0794fb27a88579830dadee27d43ea7c30604051808273ffffffffffffffffffffffffffffffffffffffff1673ffffffffffffffffffffffffffffffffffffffff16815260200191505060405180910390a150505050506102c1565b600033905090565b61167c806102d06000396000f3fe6080604052600436106100f35760003560e01c8063715018a61161008a578063b0192f9a11610059578063b0192f9a146103e9578063c5c4744c14610440578063ef378f621461046b578063f2fde38b146104d0576100f3565b8063715018a6146103215780637b1b1de6146103385780638da5cb5b146103635780638f32d59b146103ba576100f3565b80635832d571116100c65780635832d571146101ff57806363bd1d4a1461027a5780636cfc82ed1461029157806370a08231146102bc576100f3565b8063312ba405146100f85780633c9177cd1461014f5780633e413bee1461017a578063454a2ab3146101d1575b600080fd5b34801561010457600080fd5b5061010d610521565b604051808273ffffffffffffffffffffffffffffffffffffffff1673ffffffffffffffffffffffffffffffffffffffff16815260200191505060405180910390f35b34801561015b57600080fd5b50610164610547565b6040518082815260200191505060405180910390f35b34801561018657600080fd5b5061018f61054d565b604051808273ffffffffffffffffffffffffffffffffffffffff1673ffffffffffffffffffffffffffffffffffffffff16815260200191505060405180910390f35b6101fd600480360360208110156101e757600080fd5b8101908080359060200190929190505050610573565b005b34801561020b57600080fd5b506102386004803603602081101561022257600080fd5b81019080803590602001909291905050506109e9565b604051808273ffffffffffffffffffffffffffffffffffffffff1673ffffffffffffffffffffffffffffffffffffffff16815260200191505060405180910390f35b34801561028657600080fd5b5061028f610a25565b005b34801561029d57600080fd5b506102a6610fc0565b6040518082815260200191505060405180910390f35b3480156102c857600080fd5b5061030b600480360360208110156102df57600080fd5b81019080803573ffffffffffffffffffffffffffffffffffffffff169060200190929190505050610fc6565b6040518082815260200191505060405180910390f35b34801561032d57600080fd5b50610336610fde565b005b34801561034457600080fd5b5061034d611117565b6040518082815260200191505060405180910390f35b34801561036f57600080fd5b5061037861112c565b604051808273ffffffffffffffffffffffffffffffffffffffff1673ffffffffffffffffffffffffffffffffffffffff16815260200191505060405180910390f35b3480156103c657600080fd5b506103cf611155565b604051808215151515815260200191505060405180910390f35b3480156103f557600080fd5b506103fe6111b3565b604051808273ffffffffffffffffffffffffffffffffffffffff1673ffffffffffffffffffffffffffffffffffffffff16815260200191505060405180910390f35b34801561044c57600080fd5b506104556111d9565b6040518082815260200191505060405180910390f35b34801561047757600080fd5b506104ba6004803603602081101561048e57600080fd5b81019080803573ffffffffffffffffffffffffffffffffffffffff1690602001909291905050506111df565b6040518082815260200191505060405180910390f35b3480156104dc57600080fd5b5061051f600480360360208110156104f357600080fd5b81019080803573ffffffffffffffffffffffffffffffffffffffff1690602001909291905050506111f7565b005b600260009054906101000a900473ffffffffffffffffffffffffffffffffffffffff1681565b60075481565b600360009054906101000a900473ffffffffffffffffffffffffffffffffffffffff1681565b60075442106105ea576040517f08c379a000000000000000000000000000000000000000000000000000000000815260040180806020018281038252601c8152602001807f41756374696f6e2068617320616c72656164792066696e69736865640000000081525060200191505060405180910390fd5b7f7a183e84509e3fe5b0b3aac15347fd1c7d71fd1503001f1a1d7c9658077eb35f816040518082815260200191505060405180910390a1600260009054906101000a900473ffffffffffffffffffffffffffffffffffffffff1673ffffffffffffffffffffffffffffffffffffffff16639b19251a336040518263ffffffff1660e01b8152600401808273ffffffffffffffffffffffffffffffffffffffff1673ffffffffffffffffffffffffffffffffffffffff16815260200191505060206040518083038186803b1580156106c057600080fd5b505afa1580156106d4573d6000803e3d6000fd5b505050506040513d60208110156106ea57600080fd5b810190808051906020019092919050505061076d576040517f08c379a000000000000000000000000000000000000000000000000000000000815260040180806020018281038252601b8152602001807f41646472657373206973206e6f74206f6e2077686974656c697374000000000081525060200191505060405180910390fd5b600360009054906101000a900473ffffffffffffffffffffffffffffffffffffffff1673ffffffffffffffffffffffffffffffffffffffff166323b872dd3330846040518463ffffffff1660e01b8152600401808473ffffffffffffffffffffffffffffffffffffffff1673ffffffffffffffffffffffffffffffffffffffff1681526020018373ffffffffffffffffffffffffffffffffffffffff1673ffffffffffffffffffffffffffffffffffffffff1681526020018281526020019350505050602060405180830381600087803b15801561084a57600080fd5b505af115801561085e573d6000803e3d6000fd5b505050506040513d602081101561087457600080fd5b81019080805190602001909291905050506108da576040517f08c379a00000000000000000000000000000000000000000000000000000000081526004018080602001828103825260388152602001806115c66038913960400191505060405180910390fd5b6000600860003373ffffffffffffffffffffffffffffffffffffffff1673ffffffffffffffffffffffffffffffffffffffff1681526020019081526020016000205414156109895760093390806001815401808255809150509060018203906000526020600020016000909192909190916101000a81548173ffffffffffffffffffffffffffffffffffffffff021916908373ffffffffffffffffffffffffffffffffffffffff160217905550505b8060056000828254019250508190555080600860003373ffffffffffffffffffffffffffffffffffffffff1673ffffffffffffffffffffffffffffffffffffffff1681526020019081526020016000206000828254019250508190555050565b600981815481106109f657fe5b906000526020600020016000915054906101000a900473ffffffffffffffffffffffffffffffffffffffff1681565b600754421015610a9d576040517f08c379a000000000000000000000000000000000000000000000000000000000815260040180806020018281038252601c8152602001807f41756374696f6e20686173206e6f74207965742066696e69736865640000000081525060200191505060405180910390fd5b6000600360009054906101000a900473ffffffffffffffffffffffffffffffffffffffff1673ffffffffffffffffffffffffffffffffffffffff166370a08231306040518263ffffffff1660e01b8152600401808273ffffffffffffffffffffffffffffffffffffffff1673ffffffffffffffffffffffffffffffffffffffff16815260200191505060206040518083038186803b158015610b3e57600080fd5b505afa158015610b52573d6000803e3d6000fd5b505050506040513d6020811015610b6857600080fd5b810190808051906020019092919050505090506005548114610bd5576040517f08c379a00000000000000000000000000000000000000000000000000000000081526004018080602001828103825260298152602001806115fe6029913960400191505060405180910390fd5b600360009054906101000a900473ffffffffffffffffffffffffffffffffffffffff1673ffffffffffffffffffffffffffffffffffffffff1663a9059cbb600160009054906101000a900473ffffffffffffffffffffffffffffffffffffffff166005546040518363ffffffff1660e01b8152600401808373ffffffffffffffffffffffffffffffffffffffff1673ffffffffffffffffffffffffffffffffffffffff16815260200182815260200192505050602060405180830381600087803b158015610ca257600080fd5b505af1158015610cb6573d6000803e3d6000fd5b505050506040513d6020811015610ccc57600080fd5b8101908080519060200190929190505050610d32576040517f08c379a00000000000000000000000000000000000000000000000000000000081526004018080602001828103825260408152602001806115866040913960400191505060405180910390fd5b60008090505b600980549050811015610fbc57600060098281548110610d5457fe5b9060005260206000200160009054906101000a900473ffffffffffffffffffffffffffffffffffffffff1690506000610ddd600860008473ffffffffffffffffffffffffffffffffffffffff1673ffffffffffffffffffffffffffffffffffffffff16815260200190815260200160002054670de0b6b3a76400008681610dd757fe5b0461127d565b905060008111610dec57600080fd5b6000655af3107a4000610e01836004546112c7565b81610e0857fe5b04905060008111610e1857600080fd5b80600a60008573ffffffffffffffffffffffffffffffffffffffff1673ffffffffffffffffffffffffffffffffffffffff168152602001908152602001600020819055507f5afeca38b2064c23a692c4cf353015d80ab3ecc417b4f893f372690c11fbd9a68382604051808373ffffffffffffffffffffffffffffffffffffffff1673ffffffffffffffffffffffffffffffffffffffff1681526020018281526020019250505060405180910390a1600260009054906101000a900473ffffffffffffffffffffffffffffffffffffffff1673ffffffffffffffffffffffffffffffffffffffff1663a9059cbb84836040518363ffffffff1660e01b8152600401808373ffffffffffffffffffffffffffffffffffffffff1673ffffffffffffffffffffffffffffffffffffffff16815260200182815260200192505050602060405180830381600087803b158015610f7057600080fd5b505af1158015610f84573d6000803e3d6000fd5b505050506040513d6020811015610f9a57600080fd5b8101908080519060200190929190505050505050508080600101915050610d38565b5050565b60045481565b60086020528060005260406000206000915090505481565b610fe6611155565b611058576040517f08c379a00000000000000000000000000000000000000000000000000000000081526004018080602001828103825260208152602001807f4f776e61626c653a2063616c6c6572206973206e6f7420746865206f776e657281525060200191505060405180910390fd5b600073ffffffffffffffffffffffffffffffffffffffff166000809054906101000a900473ffffffffffffffffffffffffffffffffffffffff1673ffffffffffffffffffffffffffffffffffffffff167f8be0079c531659141344cd1fd0a4f28419497f9722a3daafe3b4186f6b6457e060405160405180910390a360008060006101000a81548173ffffffffffffffffffffffffffffffffffffffff021916908373ffffffffffffffffffffffffffffffffffffffff160217905550565b600061112760055460045461127d565b905090565b60008060009054906101000a900473ffffffffffffffffffffffffffffffffffffffff16905090565b60008060009054906101000a900473ffffffffffffffffffffffffffffffffffffffff1673ffffffffffffffffffffffffffffffffffffffff1661119761134d565b73ffffffffffffffffffffffffffffffffffffffff1614905090565b600160009054906101000a900473ffffffffffffffffffffffffffffffffffffffff1681565b60055481565b600a6020528060005260406000206000915090505481565b6111ff611155565b611271576040517f08c379a00000000000000000000000000000000000000000000000000000000081526004018080602001828103825260208152602001807f4f776e61626c653a2063616c6c6572206973206e6f7420746865206f776e657281525060200191505060405180910390fd5b61127a81611355565b50565b60006112bf83836040518060400160405280601a81526020017f536166654d6174683a206469766973696f6e206279207a65726f000000000000815250611499565b905092915050565b6000808314156112da5760009050611347565b60008284029050828482816112eb57fe5b0414611342576040517f08c379a00000000000000000000000000000000000000000000000000000000081526004018080602001828103825260218152602001806116276021913960400191505060405180910390fd5b809150505b92915050565b600033905090565b600073ffffffffffffffffffffffffffffffffffffffff168173ffffffffffffffffffffffffffffffffffffffff1614156113db576040517f08c379a00000000000000000000000000000000000000000000000000000000081526004018080602001828103825260268152602001806115606026913960400191505060405180910390fd5b8073ffffffffffffffffffffffffffffffffffffffff166000809054906101000a900473ffffffffffffffffffffffffffffffffffffffff1673ffffffffffffffffffffffffffffffffffffffff167f8be0079c531659141344cd1fd0a4f28419497f9722a3daafe3b4186f6b6457e060405160405180910390a3806000806101000a81548173ffffffffffffffffffffffffffffffffffffffff021916908373ffffffffffffffffffffffffffffffffffffffff16021790555050565b60008083118290611545576040517f08c379a00000000000000000000000000000000000000000000000000000000081526004018080602001828103825283818151815260200191508051906020019080838360005b8381101561150a5780820151818401526020810190506114ef565b50505050905090810190601f1680156115375780820380516001836020036101000a031916815260200191505b509250505060405180910390fd5b50600083858161155157fe5b04905080915050939250505056fe4f776e61626c653a206e6577206f776e657220697320746865207a65726f2061646472657373556e61626c6520746f207472616e7366657220555344432066726f6d2061756374696f6e20636f6e747261637420746f2061756374696f6e206d616e61676572556e61626c6520746f207472616e7366657220555344432066726f6d206164647265737320746f2061756374696f6e20636f6e7472616374746f74616c206465706f7369746564206e6f7420657175616c20746f20746f74616c20726169736564536166654d6174683a206d756c7469706c69636174696f6e206f766572666c6f77a265627a7a72315820bab0a5bf742e440c6dbb71e6f077f454a4aca93404b20b1cae41e07028c008b964736f6c634300050c00324f776e61626c653a206e6577206f776e657220697320746865207a65726f20616464726573734f6e6c792061646d696e732063616e2063726561746520616e2061756374696f6ea265627a7a72315820035a238c65fc6f7e9909921351c9c7d308d2a87ac9ba9bece63391b2e767755264736f6c634300050c0032",
  "source": "pragma solidity >=0.4.25 <0.6.0;\n\nimport \"./SOVToken.sol\";\nimport \"./USDC.sol\";\nimport \"./Auction.sol\";\nimport 'openzeppelin-solidity/contracts/math/SafeMath.sol';\n// import \"./FixidityLib.sol\";\n\n// in this model we can create several auction instances, \n// in which each instance represents a tranche\ncontract AuctionManager is Ownable {\n\tusing SafeMath for uint256;\n\n\t// mapping(address => Auction) auctions;\n\taddress[] public auctions;\n\n\tuint256 public supply;\n\tuint256 public initialPercent;\n\tuint256 public initialPercentD;\n\tuint256 public tranches;\n\tuint256 public supplyPercent;\n\tuint256 public supplyPercentD;\n\tuint public auctionDuration;\n\n\tSOVToken public sov;\n\tUSDC public usdc;\n\n\tevent AuctionCompletion(address auctionAddress);\n\t// event Log(string s, uint256 amount);\n\n\tconstructor(\n\t\tSOVToken _sov, \n\t\tUSDC _usdc, \n\t\tuint256 _supply, \n\t\tuint256 _initialPercent, \n\t\tuint256 _tranches, \n\t\tuint256 _supplyPercent\n\t) public {\n\t\tsov = _sov;\n\t\tusdc = _usdc;\n\t\t// initialize the variables for the auction manager\n\t\tsupply = _supply;\n\t\tinitialPercent = _initialPercent ; // .25%\n\t\tinitialPercentD = 10000;\n\t\t// initialPercent = FixidityLib.fractional(0.0025);\n\t\ttranches = _tranches;\n\t\tsupplyPercent = _supplyPercent; // 40%\n\t\tsupplyPercentD = 10000;\n\t\t// supplyPercent = FixidityLib.fractional(0.4);\n\t\tauctionDuration = 1 hours; // 5 seconds \n\t}\n\n\tfunction getAuctions() view public returns (address[] memory ) {\n\t   return auctions;\n\t}\n\n\tfunction test() public view returns(uint) {\n\t    return now;\n\t}\n\n\tfunction getTrancheSize() public view returns(uint256) {\n\t\tif(auctions.length == 0) {\n\t\t\treturn supply * initialPercent / initialPercentD;\n\t\t}\n\t\t// calculate based off of previous auctions \n\t\tuint totalRaised = 0;\n\t\tuint sumOfTranches = 0;\n\t\tfor (uint i=0; i < auctions.length; i++) {\n\t\t\tAuction auction = Auction(auctions[i]);\n\t\t\tuint256 auctionRaised = auction.totalRaised();\n\t\t\ttotalRaised += auctionRaised;\n\t\t\tuint256 auctionTrancheSize = auction.trancheSize();\n\t\t\tsumOfTranches += auctionTrancheSize;\n\t\t}\n\n\t\tuint averageRaise = SafeMath.div(totalRaised, auctions.length);\n\t\tuint marshallIslandsGDP = 180000000; // 18 billion dollars\n\t\tuint num = (supply * supplyPercent / supplyPercentD) - sumOfTranches;\n\t\tuint a = (marshallIslandsGDP * supplyPercent / supplyPercentD);\n\t\tuint b = (tranches * totalRaised / (auctions.length) / 10**18);\n\t\tuint den = (a + b) / 2;\n\t\tuint trancheSizeTokens = SafeMath.div((num * averageRaise), den); \n\t\tuint trancheSize = trancheSizeTokens / 10**18;\n\t\t// return new tranche size \n\t\treturn trancheSize;\n\t}\n\n\tfunction createAuction() public returns(address) {\n\t\t// only admins (as defined in the sov contract) can create auctions \n\t\trequire(sov.admins(msg.sender) == true, \"Only admins can create an auction\");\n\t\t// determine how large the tranche size is for the next auction\n\t   \tuint256 trancheSize = getTrancheSize();\n\t   \t// create the next auction, configure the tranche size\n\t   \tuint endDateTime = now + auctionDuration;\n\t   \tAuction newAuction = new Auction(this, sov, usdc, trancheSize, endDateTime);\n\t    address auctionAddress = address(newAuction);\n\t    // save the auction to our auctions key-value mapping\n\t    // auctions[auctionAddress] = newAuction;\n\t   \t// require(auctions[address(newAuction)] == newAuction, \"auction not saved.\");\n\t   \tauctions.push(auctionAddress);\n\t   \t // mint sov tokens and send those tokens to auction instance\n   \t\tsov.mint(auctionAddress, trancheSize * 10**4);\n   \t\t// add auction to whitelist, so it can transfer (in payout)\n   \t\tsov.addToWhiteList(auctionAddress);\n\t    return auctionAddress;\n\t}\n\n\tfunction pricePerToken() view public returns (uint) {\n\t    uint totalRaised = 0;\n\t    uint sumOfTranches = 0;\n\t    for (uint i=0; i < auctions.length; i++) {\n\t    \tAuction auction = Auction(auctions[i]);\n\t    \tuint256 auctionRaised = auction.totalRaised();\n\t    \ttotalRaised += auctionRaised;\n\t    \tuint256 auctionTrancheSize = auction.trancheSize();\n\t    \tsumOfTranches += auctionTrancheSize;\n\t    }\n\n\t    return SafeMath.div(totalRaised, sumOfTranches);\n\t}\n\n\t// function onAuctionCompletion(address auctionAddress) public { \n\t// \temit AuctionCompletion(auctionAddress);\n\t// \taddress nextAuction = createAuction();\n\t// } \n}\n\n",
  "sourcePath": "/Users/gilad/Documents/Code/sov-erc20/smart_contract/contracts/AuctionManager.sol",
  "compiler": {
    "name": "solc",
    "version": "0.5.12+commit.7709ece9.Emscripten.clang"
  },
  "schemaVersion": "3.0.19",
  "updatedAt": "2020-01-17T20:19:36.491Z",
  "networkType": "ethereum",
  "devdoc": {
    "methods": {
      "isOwner()": {
        "details": "Returns true if the caller is the current owner."
      },
      "owner()": {
        "details": "Returns the address of the current owner."
      },
      "renounceOwnership()": {
        "details": "Leaves the contract without owner. It will not be possible to call `onlyOwner` functions anymore. Can only be called by the current owner.     * NOTE: Renouncing ownership will leave the contract without an owner, thereby removing any functionality that is only available to the owner."
      },
      "transferOwnership(address)": {
        "details": "Transfers ownership of the contract to a new account (`newOwner`). Can only be called by the current owner."
      }
    }
  },
  "userdoc": {
    "methods": {}
  }
}